:020000040800F2
:10000000A0040020A1010008DF190008C91600089B
:10001000DD1900081D0B0008611B0008000000002E
:10002000000000000000000000000000911A00081D
:100030001F0B000800000000011A0008971A0008B2
:10004000BB010008BB010008BB010008BB010008A0
:10005000BB010008BB010008BB010008BB01000890
:10006000BB010008BB010008BB010008BB01000880
:10007000BB010008BB010008BB010008BB01000870
:10008000BB010008BB010008BB010008BB01000860
:10009000BB010008BB010008BB010008BB01000850
:1000A000BB010008BB010008BB010008BB01000840
:1000B000BB010008BB010008BB010008BB01000830
:1000C000BB010008BB010008BB010008BB01000820
:1000D000BB010008BB010008BB010008BB01000810
:1000E000BB010008BB010008BB010008BB01000800
:1000F000BB010008BB010008BB010008BB010008F0
:10010000BB010008BB010008BB010008BB010008DF
:10011000BB010008BB010008BB010008BB010008CF
:10012000BB010008BB010008BB010008BB010008BF
:10013000BB010008BB010008BB010008BB010008AF
:10014000BB010008BB010008BB010008BB0100089F
:10015000BB010008BB010008BB010008BB0100088F
:10016000BB010008BB010008BB010008BB0100087F
:10017000BB010008BB010008BB0100080000000033
:10018000BB010008BB010008DFF810D000F01AFB2B
:1001900000480047CD290008AFF30080A0040020EC
:1001A0000648804706480047FEE7FEE7FEE7FEE711
:1001B000FEE7FEE7FEE7FEE7FEE7FEE70D1B0008B1
:1001C000890100082DE9F05F0546002092469B4614
:1001D00088460646814640241BE02846414647465D
:1001E000224600F009FA53465A46C01A914110D3EC
:1001F00011461846224600F0F0F92D1A67EB010867
:100200004F4622460120002100F0E7F917EB0009D4
:100210004E41201EA4F10104DFDC484631462A4647
:100220004346BDE8F09FD2B201E000F8012B491E21
:10023000FBD270470022F6E710B513460A46044683
:100240001946FFF7F0FF204610BD2DE9FE4F80460E
:1002500081EA0300C00F0C46009021F0004123F01A
:100260000045B8EB0200A94105D240462146904620
:100270001C460B46024623F00040104347D0270D92
:10028000C7F30A00C3F30A510290401A01904028B4
:100290006BDAC3F3130040F4801B0098924620B140
:1002A0000023D2EB030A63EB0B0B01985946C0F114
:1002B0004002504600F091F906460D465046594618
:1002C000019A00F0A9F910EB08006141002487EAC7
:1002D000115284EAE7731A4340D0009A62B3019A3C
:1002E000012A4FEA075215DC001B61EB02014FF0B7
:1002F000004202EA0752CDE90042001C41F580119C
:1003000032462B4600F0E0F903B0BDE8F08F4046DE
:100310002146F9E7001B61EB0201001C41F5801347
:1003200000185B412018A2F5001747EB030140EAD3
:10033000D570B6196D4111E06D084FEA360645EAF1
:10034000C0754FEA0752001B61EB0201001C41F52A
:10035000801149084FEA30000019514132462B46BE
:1003600003B0BDE8F04F00F0A0B9009801224000B2
:100370000023D0EB020263EBE073009821464FEAC2
:10038000E074B8EB000061EB0401E9E783F000439F
:100390005BE781F0004158E72DE9FE4F81EA030455
:1003A00004F0004421F0004100944FF0000B23F0D2
:1003B000004350EA01045ED052EA03045BD0C3F369
:1003C0000A54C1F30A552C44A4F2F3340194A0FB5F
:1003D0000254C1F3130141F48011C3F3130343F436
:1003E000801301FB024400FB034E840A970A44EA8F
:1003F000815447EA8357A4FB076802958D0A05FBE1
:1004000007854FEA932C04FB0C542705029D4FEA05
:10041000065847EA1637B5EB08056EEB070C870E52
:10042000920E47EA811742EA8312A7FB0201B6EB5C
:100430000B0164EB00042B0D43EA0C335E1844EB14
:100440001C50DA465146E7FB0201C5F313044FEA9C
:100450000B3343EA14534FEA0432019C43EA060388
:10046000A4F10C040294009CCDE900B400F02CF936
:1004700003B0BDE8F08F00200146F9E72DE9F04D0B
:1004800081EA030404F0004B21F0004514464FF0CC
:10049000000A23F0004150EA050220D054EA01028C
:1004A0001DD0C5F30A570246C5F31303C1F3130069
:1004B000C1F30A5640F4801543F48013A7EB0608F5
:1004C000101BD64608F2FD3873EB050002D308F185
:1004D000010801E092185B41B8F1000F03DA002037
:1004E0000146BDE8F08D00204FF480110646844699
:1004F0000EE0171B73EB050705D3121B63EB050317
:1005000006434CEA010C49084FEA300092185B415F
:1005100050EA0107EDD152EA030012D082EA04004A
:1005200083EA0501084305D0101BAB4106D2012226
:10053000002306E000224FF0004302E06FF00102CA
:1005400053101AEB06004CEB085110EB0A0041EB7C
:100550000B01BDE8F04D00F0A8B80EB5C10F80EA60
:10056000E0700844CA07002140F233438DE80E00D2
:100570000A460B4600F0A8F803B000BD00F00042A8
:1005800030F000400AD0C10D01F56071C0F31600D3
:1005900042EA0151C208400711437047002001465A
:1005A000704701F0004330B421F0004150EA0102ED
:1005B00006D00A0DA2F56072C1F31301002A02DC15
:1005C00030BC00207047440F44EAC104C100E01869
:1005D00030BC00EBC25000F031B8202A04DB203AD6
:1005E00000FA02F1002070479140C2F1200320FA86
:1005F00003F3194390407047202A04DB203A21FA84
:1006000002F00021704721FA02F3D040C2F120022B
:100610009140084319467047202A06DBCB17203A41
:1006200041FA02F043EAE07306E041FA02F3D040F7
:10063000C2F1200291400843194670470029A8BF23
:100640007047401C490008BF20F00100704710B4FB
:10065000B0FA80FC00FA0CF050EA010404BF10BCB0
:10066000704749B1CCF1200421FA04F411FA0CF1DD
:1006700018BF012121430843A3EB0C01CB1D4FEA16
:1006800000614FEA102042BF002010BC704700EB11
:10069000C35010440029A4BF10BC7047401C49003F
:1006A00008BF20F0010010BC704710B5141E73F194
:1006B000000408DA401C41F1000192185B411A4322
:1006C00001D120F0010010BD2DE9F04D92469B466E
:1006D00011B1B1FA81F202E0B0FA80F22032904614
:1006E000FFF77BFF04460F4640EA0A0041EA0B0190
:1006F00053465A46084313D0114653EA010019D015
:10070000C8F140025046FFF777FF05460E465046B7
:1007100059464246FFF761FF084305D0012004E037
:1007200020463946BDE8F08D0020054346EAE076D4
:100730002C4337430A986305E40AA0EB0800002223
:10074000FD0A44EA47540A3002D500200146E9E791
:10075000010510196941DDE9084500196941BDE845
:10076000F04DA2E770B521F0004303430CD0C1F374
:100770000A550024D5EB040564EB0403D617AD1A23
:10078000B34102DB0020014670BD201841EB02514D
:1007900070BD000030B5041E71F1000404DB4FF0A1
:1007A0000044404264EB0101141E73F1000405DBB8
:1007B0001C464FF00043524263EB0403994208BFCA
:1007C000904230BD064C074D06E0E06840F0010362
:1007D00094E8070098471034AC42F6D3FFF7D8FCF2
:1007E000182B0008382B00082DE9F04D00231A467D
:1007F0001B1A8A4103DB00200146BDE8F08DC1F3DE
:100800000A52C1F3130141F480154FF0000BD107D8
:1008100002D100186D41521E0027044640F2FF111C
:10082000384601EB620A3E468046024600204FF4FD
:100830008011FFF7E1FEC2197141BB1846EB0100C0
:10084000B4EB030C75EB000C04D3E41A65EB000564
:1008500017460E46241908F101006D4180463428E0
:10086000E3DDF91946EB0600091BA84103D24FF05E
:10087000FF32134601E0002213461BEB070046EB54
:100880000A51BDE8F04DFFF710BF000010B500F0B1
:1008900033F8BDEEC00A9FED111AF8EEC00A80EEE3
:1008A000810A10EE100AFFF769FE41EC100B9FED74
:1008B0000C1B01F071F99FED0C1B51EC100B53EC6C
:1008C000112BFFF766FD9FED0A1B53EC112BFFF771
:1008D00063FDFFF766FE00EE100A10BD80E6C54717
:1008E000A444E2CC955BC83F000000000000F03F4C
:1008F0000000000040A5E54070B500F0AFF83C49AD
:10090000C8614C6BA4F57A648C6325466443E21796
:1009100004EB1252B1F90E30161306FB03F2D31793
:1009200002EB5352B1F90230D2126B43DC1703EBE6
:10093000545302EBE322B1F9003002EB83020223AD
:1009400003EBC202D31702EB93729310CB62B1F99F
:100950000420C01A6A43D41702EBD44254130C6229
:10096000B1F90C5041F66A0306FB05F2D51702EB0C
:10097000154212144A622244921CD41702EB94725C
:1009800092108A62CC8802F500425443E20B58432D
:100990000A63C863B0F1004F03D24000B0FBF2F02D
:1009A00002E0B0FBF2F0400002460864C01702EB20
:1009B00010600012404340F6DE335843C31700EB8B
:1009C000134003140B4890FBF2F0C41700EB1440E3
:1009D0000014C1E90830184400F6CF60C11700EBDD
:1009E000117002EB201000EE100AB8EEC00A70BDC4
:1009F0000C00002043E3FFFF10B500F061F814493C
:100A000088614A89801A0A895043C21700EB524014
:100A1000C0130862B1F91220B1F91430D2020344B4
:100A200092FBF3F210444A6248630830C11700EBAE
:100A300011700011FFF791FD9FED061B53EC112B78
:100A4000FFF71CFDFFF7ADFD00EE100A10BD000022
:100A50000C000020000000000000244010B586B00B
:100A6000F4208DF8100000200390012004A9CDE9A6
:100A700000104FF47A740346F4220294EE210F48DA
:100A800000F0A2FA1A2000F04DF8032003A9CDE9E6
:100A900000100123F6220294EF21084800F0B2F979
:100AA0009DF80C009DF80D10000400EB01209DF84E
:100AB0000E1006B00844400910BD0000640000207C
:100AC00010B586B02E208DF8100000200390042071
:100AD00004A9CDE900104FF47A740123F4220294A2
:100AE000EE210D4800F070FA052000F01BF80220FE
:100AF00003A9CDE900100123F6220294EF21064854
:100B000000F080F99DF80D009DF80C1006B000EB88
:100B1000012000B210BD000064000020FEE7704715
:100B20007047000070B5044600F0E6F80546601C0A
:100B300002D004480078044400F0DEF8401BA042D4
:100B4000FAD370BD500000202DE9F84FDFF87CB1DA
:100B500000224FF001084FF0030A4FF00F090BF18C
:100B6000040E00BF0B6808FA02F42340A3426ED1C2
:100B70004D68022D01D0122D0ED1D50800EB850C49
:100B8000DCF820505607F70E09FA07F6B5430E6950
:100B9000BE402E43CCF82060066855000F790AFA53
:100BA00005FC07F0030726EA0C06AF403743076051
:100BB0004E68012E05D0022E03D0112E01D0122E28
:100BC0000ED18668CF6826EA0C06AF4037438760AF
:100BD0004668A6430C79C4F300149440344344603F
:100BE000C6688C6826EA0C06AC403443C4604C6886
:100BF000E40065D5364C256845F4804525602468B9
:100C000022F0030504F480440094324C2E19D6F8E7
:100C1000084895072F0F09FA07F5AC432E4DA84257
:100C200001D1002524E02D4DA84201D101251FE06E
:100C30002B4DA84201D102251AE02A4DA84201D12C
:100C4000032515E0284DA84202D1042510E037E025
:100C5000264DA84201D105250AE0254DA84201D123
:100C6000062505E0234DA84201D1072500E008250F
:100C7000BD402543C6F80858DBF800405D464E6885
:100C80009C43F60300D51C432C60DEF800407546FB
:100C90004E689C43B60300D51C432C600B4D0835B1
:100CA0002C684E689C43F60200D51C432C60074D0F
:100CB0000C352C684E689C43B60200D51C432C6052
:100CC000521C102AFFF44EAFBDE8F88F003C0140E3
:100CD000443802400030014000000240000402405D
:100CE00000080240000C02400010024000140240C4
:100CF00000180240001C0240014880687047000054
:100D00005000002070B5040004D094F83500002590
:100D100010B106E0012070BD84F83450204600F088
:100D2000C9F9022084F835002068016821F001012A
:100D3000016000F0E5FA31492268B0FBF1F1516041
:100D40002F4A6368934206D94FF4967359434FF480
:100D50007A73B1FBF3F12368491C1962616891420F
:100D60000BD84900B0FBF1F2C2F30B02042A01D206
:100D7000042019E0B0FBF1F016E0A36883B301EBA7
:100D8000C10202EB0112B0FBF2F242F48042120502
:100D90002CD06BB301EBC10202EB0111B0FBF1F0FF
:100DA00040F4804040F400402168C861D4E9070164
:100DB000084321680860D4E903100843216888606B
:100DC000D4E9050108432168C8602068016841F042
:100DD00001010160A563012084F83500002070BD89
:100DE000FFE701EB4102B0FBF2F2D0E70120DBE7C5
:100DF00001EB4101B0FBF1F0D4E7000040420F00ED
:100E0000A08601002DE9FF4F81B004460EA8994647
:100E100090E8600894F835009246012877D155B1E2
:100E20004EB142F2107301226549204600F04CFD9C
:100E30000028F3D103E0012005B0BDE8F08F94F85D
:100E40003400012863D04FF0010884F83480206812
:100E5000016821F400610160422084F83500002718
:100E6000A7634B465246CDF800B02046029900F0E9
:100E700073FC28B1A06B84F834700428DBD081E0C7
:100E8000DFF840A1012E18D0DFF838912068A9F1D1
:100E90003C09022E26D0416980690090032E6AD851
:100EA000012E17D0022E2AD05B460022494620464A
:100EB00000F00AFD002865D13AE02068016821F4BD
:100EC000806101602068416981690091016841F495
:100ED000007101605B4600225146204600F0F4FCA0
:100EE000F0BB15E0016821F48061016020680168B1
:100EF00041F40061016020684169806900905B46AF
:100F000000224946204600F0DFFC48BB04E054E0E4
:100F10002068006928704AE02068016841F4007187
:100F200001602068006928702068006968703EE0F0
:100F30002068016821F4806101602068006905F87B
:100F4000010B761EB6B25B4600224946204600F0F1
:100F5000BBFC28B92068016841F40071016000E021
:100F600010E02068006905F8010B2068006905F8A9
:100F7000010BB61E17E05B4600225146204600F0EA
:100F8000A3FC08B1032057E72068006905F8010BAE
:100F90002068761EB6B24169C943490704D4006986
:100FA00005F8010B761EB6B2002E7FF477AF84F8F9
:100FB000358084F8347000203EE702203CE70000D2
:100FC00002001000400001002DE9FF4F81B00446EF
:100FD000DDE90E6590F83500DDF840909A469346BD
:100FE000012861D14EB145B142F2107301222F495F
:100FF000204600F069FCE8BB03E0012005B0BDE835
:10100000F08F94F8340001284ED04FF0010884F896
:1010100034802068016821F400610160322084F886
:1010200035000027A76353465A46CDF80090204666
:10103000029900F001FC28B1A06B84F834700428F8
:10104000DBD024E0DFF868A04B4600225146204662
:1010500000F03AFCD8B9216816F8010B0861206845
:101060006D1EADB24169C943490707D445B116F8B1
:10107000011B00E018E001616D1EADB2002DE3D14F
:101080004B4600225146204600F01EFC08B10320CA
:10109000B4E72068016841F40071016084F835808C
:1010A00084F834700020A9E70220A7E702001000AE
:1010B00080000100704700000248816802781144F6
:1010C00081607047500000200B4810B5016841F462
:1010D00000710160016841F480610160016841F4C0
:1010E00080710160032000F061F8002000F006F834
:1010F00000F024F8002010BD003C024070B50D4DFA
:1011000004464FF47A712878B1FBF0F00A49096877
:10111000B1FBF0F000F0C4FA48B9102C07D200225D
:101120002146501E00F022F800206C6070BD0120A6
:1011300070BD0000500000205C0000200A4808B587
:10114000016841F480410160006800F48040009033
:101150000548001F016841F080510160006800F0FF
:101160008050009008BD000044380240F0B40E4B9F
:101170001B680C46C3F30223C3F10705042D00D9F5
:101180000425191D072901D2002300E0DB1E0126DA
:1011900006FA05F1491E214099409E40761E1640F0
:1011A0003143F0BC00F01CBC0CED00E0064900F03F
:1011B000070208684FF6FF03184040EA0220034A7E
:1011C00010430860704700000CED00E00000FA05D5
:1011D0002DE9F0470E46050065D0DFF81481D8F8F8
:1011E0000000F7B200F00F00B04207D288F800709C
:1011F000D8F8000000F00F00B04254D128683D4CF0
:10120000810712D5400703D5206840F4E0502060E4
:101210002878000703D5206840F4604020602068EB
:10122000A96820F0F000084320602878C0072DD07E
:10123000304968680839012812D0022813D00328E1
:1012400011D00968890700292DDA216821F00301EE
:1012500001432160FFF750FD814641F2883A0EE0DC
:1012600009688903EFE709688901ECE7FFF744FDA6
:10127000A0EB0901514502D90320BDE8F0872068A1
:10128000696800F00C00B0EB810FEFD1D8F80010C6
:10129000404601F00F01B14207D90770006800F025
:1012A0000F00B04201D00120E7E72878400705D5BC
:1012B0002068E96820F4E05008432060287800079F
:1012C00006D52068296920F4604040EAC10020600A
:1012D00000F026F82168084AC1F30311515CC840A8
:1012E000064908600020FFF709FF0020C5E700005D
:1012F000003C0240083802406E2A00085C000020D2
:101300000448054900680968044AC1F38221515C18
:10131000C84070475C000020083802407E2A000860
:10132000154810B5006810F00C02144813D0144989
:10133000042A0FD0082A0ED10F4C241F22682368DC
:1013400002F03F025B0207D52068C0F38810A0FBC3
:10135000010106E0084610BD2168C1F38811A1FB18
:1013600000010023FEF72EFF2168C1F30141491C53
:101370004900B0FBF1F010BD083802400024F40031
:1013800040787D012DE9F84F050076D02878DFF808
:10139000F8B2BE4CC00749D0DBF800105846C1F384
:1013A0008101012908D00068C0F3810002280AD118
:1013B000201D0068400206D52068800336D5686885
:1013C0000028E2D032E06868B0F5803F10D0B0F578
:1013D000A02F206810D020F480302060206820F4F6
:1013E000802020606868A0B1FFF786FC06460CE00C
:1013F000206840F48030F4E740F480202060F7E774
:10140000FFF77AFC801B642873D820688003F7D527
:101410000CE0FFF771FC064605E000BFFFF76CFC2F
:10142000801B6428F0D820688003F7D42878DFF880
:10143000608280074FF000093ED5DBF80010584667
:1014400011F00C0F09D00068C0F3810002280BD105
:101450008D48001F0068400206D42068800715D51B
:10146000E868012809D111E0E868B8B10120C8F89E
:101470000000FFF741FC064605E002E1FFF73CFCF7
:10148000801B0228C0D820688007F7D5206829690A
:1014900020F0F80040EAC10020600DE0C8F800909C
:1014A000FFF72AFC064604E0FFF726FC801B022813
:1014B0001FD820688007F7D42878000722D5724EFD
:1014C000744869696C3671B101210160FFF714FC41
:1014D000074604E0FFF710FCC01B022809D830685B
:1014E0008007F7D50EE0C0F80090FFF705FC07462F
:1014F00005E083E0FFF700FCC01B02287ED83068BF
:101500008007F7D42878400768D5DFF87CA100274A
:101510000AF1380ADAF80000C0000BD4DAF800103B
:1015200041F08051CAF80010DAF80000012700F0FD
:1015300080500090584E3068C00510D4306840F498
:1015400080703060FFF7D8FB009005E0FFF7D4FB18
:101550000099401A022851D83068C005F6D54A4E85
:10156000A868683601280FD00528306810D020F010
:1015700001003060306820F004003060A868B8B125
:10158000FFF7BAFB00900FE0306840F00100F4E78D
:1015900040F004003060F7E7FFF7AEFB0099411A16
:1015A00041F28830814264D830688007F4D50EE07B
:1015B000FFF7A2FB009007E0FFF79EFB0099411A9E
:1015C00041F28830814254D830688007F4D42FB17A
:1015D000DAF8001021F08051CAF80010A869C0B3F1
:1015E000DBF80010C1F3810102294AD002284846E5
:1015F00007D0C8F86000FFF77FFB00E039E0054640
:101600003AE04746C8F86000FFF776FB064604E07C
:10161000FFF772FB801B02282BD820688001F7D4CB
:10162000D5E907010843A96A1C4A490802EB0141B0
:101630006A6A41EA8211084395F82C1040EA016178
:101640001148001F016001203866FFF755FB054671
:1016500005E014E0FFF750FB401B022809D8206882
:101660008001F7D50BE000BFFFF746FB401B0228C7
:1016700002D90320BDE8F88F20688001F4D400204F
:10168000F8E70120F6E70000083802400038024081
:1016900000004742800E4742007000400000FFFFFC
:1016A00010B5401EB0F1807F01D3012010BD4FF076
:1016B000E02460610F21601700F092F90020A06122
:1016C00007202061002010BDFEE7000010B51D4876
:1016D00086B00024016841F002010160006800F05A
:1016E0000200059017481030016841F400110160B4
:1016F0000068694600F4001005904FF440700090B7
:1017000012200190012002900320039004200490F5
:101710000D48FFF719FA0E480C4901600D49C0E960
:1017200001144FF48041C0E9034144618461C46104
:101730000462FFF7E7FA002801D0FFF7F1F906B0DD
:1017400010BD000030380240000402400054004048
:1017500064000020801A06002DE9F84F0446006856
:101760000F4698460168164641F480610160206882
:10177000016841F4807101604FF00119002249466F
:1017800020460A9B00F0A0F8E8BB216807F0FE00A5
:10179000086109F1010A514620460A9A00F0DAF878
:1017A00018B1A06B042842D031E0206841698069FB
:1017B0000090DFF880B00022594620460A9B00F0D6
:1017C00083F800BBF5B2B8F1010F09D02168300AE7
:1017D00008610022594620460A9B00F075F890B92E
:1017E000206805610022594620460A9B00F06CF8EB
:1017F00048B92068016841F48071016000224946BF
:1018000020460A9B00E002E000F05EF810B10320E1
:10181000BDE8F88F2168F8B240F001000861514638
:1018200020460A9A00F096F80028BAD1F0E7012085
:10183000EEE70000800001002DE9F843044600684F
:101840000D46DDF8209001689846164641F48071F7
:1018500001604B4600224FF00111204600F034F8A1
:1018600050BB216805F0FE0008614A461549204634
:1018700000F070F828B1A06B04281DD10120BDE84C
:10188000F8832068416980690E4F00907E374B468F
:1018900000223946204600F017F868B9F5B2B8F1D1
:1018A000010F0BD02168300A08614B4600223946EF
:1018B000204600F009F808B10320E0E72068056140
:1018C0000020DCE7020001002DE9F05F1E46904693
:1018D0000C460546FFF710FA81464FF0000A4FF01C
:1018E000010BC4F30747B8F1000F09D024E0701CC6
:1018F00006D0D6B1FFF700FAA0EB0900B04214D829
:101900002868012F06D0806924EA00000004000C3A
:101910001BD0ECE74069F7E7701C0DD02EB1FFF744
:10192000EBF9A0EB0900B04206D985F835B085F88F
:1019300034A00320BDE8F09F2868012F07D08069FC
:1019400024EA00000004000CE6D00020F2E7406921
:10195000F6E700002DE9F04791460D460446FFF7F3
:10196000CBF9824600274FF00108C5F3074628E06F
:1019700020684069C043400511D42068016841F4E3
:101980000071016021686FF4806048610420A063E9
:1019900084F8358084F834700120BDE8F087B9F10F
:1019A000FF3F0ED0B9F1000F05D0FFF7A5F9A0EB6E
:1019B0000A01494505D984F8358084F8347003203C
:1019C000EBE72068012E07D0D0F8180025EA0000C8
:1019D0000004000CE1D0CBE74069F7E7FEE7704771
:1019E0000907090E002806DA00F00F0000F1E020D8
:1019F00080F8141D704700F1E02080F80014704753
:101A00007047000000B589B0182103A8FEF712FC4A
:101A10004FF47A73162103A88DE80B00AA22012344
:101A2000EE211948FFF7EEF9BDF80C0041BA17484E
:101A30000180BDF80E1049BA4180BDF8101049BAB6
:101A40008180BDF8121049BAC180BDF8141049BA9E
:101A50000181BDF8161049BA4181BDF8181049BA84
:101A60008181BDF81A1049BAC181BDF81C1049BA6C
:101A70000182BDF81E1049BA4182BDF8201049BA52
:101A8000818209B000BD0000640000200C0000202D
:101A90007047FFF7B7BFFFF70FBB000010B592B05C
:101AA00030216846FEF7C6FB14210CA8FEF7C2FBE6
:101AB00014480024016841F080510160006800F082
:101AC000805011901048016841F480410160006825
:101AD000069400F4804011900220009001200390B1
:101AE000102004906846FFF74DFC0F20CDE90C0450
:101AF0000E940F9400210CA81094FFF769FB12B00C
:101B000010BD0000403802400070004010480168DD
:101B100041F4700101600F48016841F0010101606A
:101B20000C4A00210832116002680B4B1A40026017
:101B3000031D0A4A1A60026822F4802202600548E6
:101B40000C30016002495806803908607047000077
:101B500088ED00E000380240FFFFF6FE1030002460
:101B6000FEE703B401984100009850EAC12018BF75
:101B700004204A0D18BF40F0010040F2FF72B2EBA2
:101B8000515F08BF40F00200012808BF052002B0E5
:101B900070470000000000002DE9F04D2DED040B12
:101BA0002DED0E8B96B0DDE92550279CDDF890A039
:101BB00025F0004624F00048BAF1000F14BF0121BF
:101BC000002101EB4502FC4953184A1093422AD3E5
:101BD000002814BF0123002303EB44030B44F749FF
:101BE0008B4220D358EA00019FEDF59B76D0DFF8B9
:101BF000D8B35D4503D1BAF1000F05D188E0BAF141
:101C0000000F08BF002100D0012101EB450111F5B3
:101C1000001F08D8002814BF0121002101EB440156
:101C200011F5001F0BD99DED261B9DED240B16B061
:101C3000BDEC0E8B04B0BDE8F04D00F069BE00278E
:101C4000002DBCBFE149884521DAE1498845A8BF9C
:101C500002271CDAC3451ADCDE4901EB285114299E
:101C600008DDC1F1340220FA02F101FA02F28242E7
:101C70000DD108E058B9C1F1140228FA02F101FAB5
:101C800002F2424503D101F00101C1F1020756EA17
:101C90000A0124D1002C22DA002D18BF022F01D016
:101CA000012F0AD0022000F07FFE16B0BDEC0E8B93
:101CB00004B0BDE8F04D00F013BE022000F074FE49
:101CC00000F00EFE51EC100B81F0004141EC100BC6
:101CD00016B0BDEC0E8B04B0BDE8F08D18E09FEDA2
:101CE000BEAB9FEDBF8B002871D1B848804522D193
:101CF00005F1804010F5801008BFBAF1000F07D041
:101D0000B3450ADC002CA8BF9DED260BE0DA0DE000
:101D1000B0EE490AF0EE690ADAE7002C06DA9DED2A
:101D2000260B51EC100B81F000416FE0AE48784477
:101D300090ED000BCCE7D8454DD1002C48DA2EB100
:101D400086423AD1BAF1000F42D126E0BAF1000F33
:101D500013D0022000F028FE00F0F6FD8DED020BFE
:101D60009DED240B8DED000B10EE900A039961F3AD
:101D70001E0003909DED020BAAE78DED02AB9DEDD9
:101D8000240B1AEE901A10EE900A8DED000B61F301
:101D90001E0003909DED020B9AE78DED028B9DEDE9
:101DA000240B18EE901A10EE900A8DED000B61F3E3
:101DB0001E0003909DED020B8AE709DA9DED240BCE
:101DC00051EC190B53EC102BFEF758FB1EE020E0F2
:101DD0009DED240B7CE786421BDAB4F1804F0DD0D9
:101DE000A4F10050B0F1FF5013D1002D11DB9DED97
:101DF000240B51EC100B00F003FE07E09DED240BCB
:101E000053EC102B51EC100B00F0C2BC41EC100B4A
:101E10005EE79DED240B51EC100B00F0CBFDBAF109
:101E2000000FCDE90E0142D19FED710B46B3A6F133
:101E3000E040B0F17F600CD05E4538D1002D00DA73
:101E4000A7B3022F0CBF01204FF0FF30FEF785FB38
:101E5000DCE7002D01DD002C0DDA002D01DD002C6A
:101E60001FDB002D16DA002C14DB012F08BF9FEDBD
:101E7000620B3FF42DAFB0EE4A0AF0EE6A0A27E794
:101E8000022F18BF002D0CD0012F0AD1002DFFF614
:101E90001FAF06E0002DB8BF002C08DA012F3FF479
:101EA00017AFB0EE480AF0EE680A11E71BE0012018
:101EB00000EBE57050EA070115D0791EB0EE498AB3
:101EC000F0EE698A084308BF9FED4D8B4E48002510
:101ED000804570DD4D494E48884514DDB0420DDB2C
:101EE000002C19DB2FE0012000F05EFD16B0BDECE8
:101EF0000E8B04B0BDE8F04D00F016BDB34502DC1A
:101F0000002C09DC1FE0864202DA002C1BDA03E019
:101F10005E452BDD002C16DD022000F045FD00F0B3
:101F200013FD8DED020B53EC1A2B51EC180BFEF741
:101F300033FACDE900010399019861F31E00039083
:101F40009DED020BC4E6022000F02EFD00F00CFD1A
:101F500010EE901A18EE900A8DED020B8DED008BAD
:101F600061F31E0003909DED020BB1E69DED0E0B9B
:101F700053EC192B51EC100BFEF708FA9FED260BD2
:101F8000CDE9080153EC102B9DED080B51EC100B23
:101F9000FEF702FA9FED221B53EC112BFEF7F9F925
:101FA0009DED081B53EC112BFEF7F6F99FED1E1B60
:101FB00053EC112B3CE08CE0FFFF1F00FFFF0F00F4
:101FC000000000000000F03F0000F03F0000F07F44
:101FD0000000404301FCFFFF000000000000F07F14
:101FE0000000000000000000DE0D00000000000006
:101FF0000000000000000080000000000000F0FF72
:10200000000000000000F0BF0000E0410000F043CD
:10201000FFFFEF3F00000000000000000000D03F85
:10202000555555555555D53F000000000000E03F7F
:10203000FEF7AFF99DED080B41EC1A0B53EC102B9A
:1020400051EC100BFEF7A8F953EC1A2BFEF7A4F98C
:1020500041EC1A0B9FEDFE0B53EC102B9DED080B82
:1020600051EC100BFEF798F941EC1B0B9FEDFA0BAE
:1020700051EC1A0B53EC102BFEF78EF941EC1A0BB6
:102080009FEDF70B53EC102B9DED080B51EC100B53
:10209000FEF782F953EC1A2BFEF778F941EC1A0B94
:1020A00051EC1B0B53EC1A2BFEF7CFF80690CDE941
:1020B00006519DED060B53EC1B2B51EC100BFEF75C
:1020C00065F953EC1A2BFEF764F941EC100B00F0A4
:1020D000A1B90020B6F5801F0EDA9FEDE30B53EC9B
:1020E000102B9DED0E0B51EC100BFEF755F9CDE9C1
:1020F0000E016FF034000E4600EB2650A0F2FF37C1
:10210000C6F31300DA4940F07F6646F04056884235
:10211000D8BF002408DDD7498142C8BF012403DCB1
:102120000024A6F580167F1CD348784400EBC40039
:102130000F9690ED00CB9DED0E0B53EC1C2B51EC4C
:10214000100BFEF723F99DED0E0B41EC1B0B53EC2E
:102150001C2B51EC100BFEF778F841EC100B51ECF6
:10216000190B53EC102BFEF789F941EC1D0B51ECC8
:102170001B0B53EC1D2BFEF70FF941EC1A0BBF485C
:102180008DED10AB7844109590ED000B4FF00050A2
:1021900040EA660000EB84408DED080B00F500205E
:1021A00009909DED080B53EC1C2B51EC100BFEF726
:1021B000EDF89DED0E1B53EC112BFEF7EAF841EC08
:1021C000100B53EC102B9DED100B51EC100BFEF788
:1021D000E3F89DED080B41EC1C0B53EC102B9DED2F
:1021E000100B51EC100BFEF7D7F853EC1B2BFEF73E
:1021F000D0F853EC1C2BFEF7C9F853EC1D2BFEF75F
:10220000CBF841EC1C0B53EC1A2B51EC1A0BFEF7DC
:10221000C3F841EC1B0B9A480621B0EE4B0AF0EED6
:102220006B0A784400F0E0FAB0EE401AF0EE601A63
:10223000B0EE41DAF0EE61DA53EC1B2B51EC1B0BE4
:10224000FEF7AAF853EC1D2BFEF7A6F89DED100B38
:1022500041EC1B0B53EC1A2B51EC100BFDF7F5FF67
:1022600053EC1C2BFEF798F853EC1B2BFDF7EDFFFE
:102270009DED100B41EC1B0B53EC102B51EC100B94
:10228000FEF78AF841EC1D0B9FED7FEB53EC1E2B04
:10229000FDF7DBFF53EC1B2BFDF7D7FF0890CDE9D3
:1022A00008519DED080B53EC1E2B51EC100BFEF763
:1022B0006DF853EC1D2BFEF769F853EC1B2BFEF762
:1022C00068F89DED080B41EC1D0B53EC102B9DEDB8
:1022D000100B51EC100BFEF75FF841EC1B0B53ECAD
:1022E0001A2B51EC1D0BFEF757F89DED080B41EC36
:1022F0001A0B53EC102B51EC1C0BFEF74DF853EC62
:102300001A2BFDF7A2FF41EC1A0B51EC1B0B53ECFF
:102310001A2BFDF79AFF0C90CDE90C519DED0C0B9B
:1023200053EC1B2B51EC100BFEF730F853EC1A2B2F
:10233000FEF72FF841EC1B0B9FED550B53EC102BC8
:102340009DED0C0B51EC100BFEF726F841EC1A0B2F
:102350009FED510B51EC1B0B53EC102BFEF71CF8AF
:1023600041EC1B0B9FED4E0B53EC102B9DED0C0B1A
:1023700051EC100BFEF710F853EC1B2BFDF765FF2B
:1023800041EC100B4848784400EBC40090ED001B72
:1023900051EC100B53EC112BFDF757FF41EC1B0BCD
:1023A0003846FEF7DAF8CDE9080153EC1B2B51EC67
:1023B0001A0BFDF74AFF41EC100B3C48784400EB48
:1023C000C40090ED00CB51EC100B53EC1C2BFDF72F
:1023D0003CFF9DED081B53EC112BFDF736FF0690DB
:1023E000CDE906519DED080B53EC102B9DED060B2E
:1023F00051EC100BFDF7CAFF53EC1C2BFDF7C6FF89
:1024000053EC1A2BFDF7C2FF53EC1B2BFDF7C1FF5A
:1024100041EC100B9DED261B53EC102B8DED001B9A
:1024200000959DED260B51EC100BFDF7B5FF9DEDD2
:10243000000B41EC1A0B53EC102B9DED260B51ECCD
:10244000100BFDF7A3FF9DED061B53EC112B2FE0A6
:10245000000000604715F73FFE822B654715F73FE8
:1024600044DF5DF80BAE543E000000000000404326
:102470008E9803007AB60B005A0900008809000004
:10248000920800000000000000000000000008406A
:10249000000000E009C7EE3FFD033ADC09C7EE3F4C
:1024A000F5015B14E02F3EBE1E070000D8060000B9
:1024B000FDF772FF53EC1A2BFDF7C7FE9DED060BDF
:1024C00041EC1A0B53EC102B9DED000B51EC100B53
:1024D000FDF762FFCDE90C019DED0C0B51EC1A0BE1
:1024E00053EC102BFDF7B1FECDE902010C46AA49D1
:1024F0008C422FDB611A084318D19DED0C0B53EC75
:10250000102B9DED020B51EC100BFDF73FFF41EC42
:102510001B0B9FEDA30B51EC1A0B53EC102BFDF78B
:1025200094FE53EC1B2BFEF735F92DD2022000F060
:102530003BFA00F009FA10EE901A18EE900A8DEDB1
:10254000020B8DED008B61F31E0003909DED020BDD
:10255000FFF7BEBB944A24F00041914214D3934943
:10256000214408437FF4EFAC9DED0C0B53EC102B92
:102570009DED020B51EC100BFDF708FF53EC1A2BED
:10258000FEF708F97FF6DFAC24F000408849894A5D
:10259000002601EB205182422BDA481C4FF48011B7
:1025A00021FA00F02044844AC0F30A517A44A1F28F
:1025B000FF3192ED000B814A8DED080BCA4020EAF5
:1025C0000202C0F3130040F48010C1F1140120FA9C
:1025D00001F60992002CB8BF76429DED080B53EC32
:1025E000102B9DED0C0B51EC100BFDF7CFFECDE940
:1025F0000C019DED0C0B51EC1A0B53EC102BFDF75D
:1026000024FE9FED6F0B0890CDE9085153EC102B81
:102610009DED080B51EC100BFDF7BEFE41EC1B0BC2
:102620009FED690B53EC102B9DED080B51EC100B3B
:10263000FDF7B2FE9DED0C0B41EC1C0B53EC102B87
:102640009DED080B51EC100BFDF7A0FE53EC1A2B7F
:10265000FDF79FFE9FED5E1B53EC112BFDF79CFEDB
:1026600053EC1C2BFDF7F1FD41EC1A0B51EC1B0B4D
:1026700053EC1A2BFDF7E9FDCDE902019DED020BAC
:1026800053EC1B2B51EC100BFDF780FE53EC1A2B77
:10269000FDF77FFE9DED020B41EC1A0B53EC102B66
:1026A00051EC100BFDF778FECDE908014A489DED8D
:1026B000080B0521784400F097F89DED081B51ECBC
:1026C000100B53EC112BFDF767FE9DED021B53EC35
:1026D000112BFDF75EFECDE906019DED020B53ECDB
:1026E0001A2B51EC100BFDF757FE53EC1A2BFDF78C
:1026F000ACFD9FED3B0B41EC1A0B53EC102B9DED09
:10270000060B51EC100BFDF741FE9DED060B41EC65
:102710001B0B53EC102B9DED020B51EC100BFDF736
:102720003BFE53EC1B2BFDF7A9FE53EC1A2BFDF7D8
:102730002DFE9DED021B53EC112BFDF727FE53ECF4
:10274000192BFDF726FECDE9020101EB065001151C
:102750000029C8BF039015DC9DED020B324651ECF9
:10276000100BFDF7FFFFFFF7FCF9042808BF00F08E
:10277000FBF832469DED020B51EC100BFDF7F2FF1A
:10278000CDE902019DED020B51EC180B53EC102B1F
:10279000FDF702FEFFF73ABB00009040000000008A
:1027A000FE822B654715973C00CC904000346F3F6C
:1027B00001FCFFFF0000E03F60050000FFFF0F008D
:1027C00000000000432EE63F396CA80C615C20BE7F
:1027D000EF39FAFE422EE63F300400000000000010
:1027E000000000000000004070B504462DED028B93
:1027F0004D1E00EBC500B0EE408AF0EE608A90ED11
:10280000000B35F0060017D053EC182B51EC100BD1
:10281000FDF7C2FD41EC100B6D1E04EBC50090ED01
:10282000001B51EC100B53EC112BFDF70EFD41EC8E
:10283000100B35F00600E7D1022D36D0042D1CD048
:10284000062D1CBFBDEC028B70BD53EC182B51EC58
:10285000100BFDF7A1FD94ED0A1B53EC112BFDF7B6
:10286000F4FC53EC182BFDF797FD94ED081B53EC8B
:10287000112BFDF7EAFC41EC100B53EC182B51EC3B
:10288000100BFDF789FD94ED061B53EC112BFDF7A2
:10289000DCFC53EC182BFDF77FFD94ED040B53EC9F
:1028A000102BFDF7D2FC41EC100B53EC182B51EC24
:1028B000100BFDF771FD94ED021B53EC112BFDF78E
:1028C000C4FC53EC182BFDF767FD94ED001B53EC93
:1028D000112BFDF7BAFCBDEC028B41EC100B70BD67
:1028E0009FED070B10B553EC102B9FED070B51EC30
:1028F000100BFDF7C3FD41EC100B10BD00000000F4
:102900000000000000000000000000000000F03F98
:1029100010B553EC112B51EC100BFDF796FC41EC6C
:10292000100B10BD000000009FED050B10B553EC1F
:10293000102B51EC100BFDF7A1FD41EC100B10BD5D
:1029400000000000000000009FED050B10B553ECE7
:10295000102B51EC100BFDF71FFD41EC100B10BDBF
:1029600000000000000000709FED050B10B553EC57
:10297000102B51EC100BFDF70FFD41EC100B10BDAF
:10298000000000000000001002E008C8121F08C18B
:10299000002AFAD170477047002001E001C1121FE0
:1029A000002AFBD170470000014908607047000011
:1029B0006000002082B0CDE9000121F000400190CC
:1029C0009DED000B02B051EC100B7047FEF77CFB45
:1029D000FFF764F8FEF77AFEFFF75BF8074C00BFDD
:1029E000FEF70AF884ED000AFDF786FF84ED010A80
:1029F000FDF74CFF84ED020AF2E700000000002022
:102A000000B52DED048B83B041EC190BFDF7ECFE06
:102A100041EC180B18EE100A18EE901A8DED008B91
:102A2000002818BF0120084320F00040C0F17F605B
:102A300000F1E040C00F14D019EE101A19EE900A00
:102A40008DED009B002918BF0121084320F00040B4
:102A5000C0F17F6000F1E040C00F04BF0120FFF72C
:102A6000A3FF51EC180B03B0BDEC048B00BD0000BC
:102A7000000000000000010203040607080900002E
:102A80000000010203040000000000000000F03F0D
:102A9000000000000000F83F0000000000000000FF
:102AA0000000004003B8E23F00000000000000000A
:102AB00006D0CF43EBFD4C3E033333333333E33F98
:102AC000FFAB6FDBB66DDB3F4D268F515555D53FC4
:102AD00001411DA96074D13F65DBC9934A86CD3F92
:102AE000EF4E454A287ECA3F3E5555555555C53F80
:102AF00093BDBE166CC166BF2CDE25AF6A56113F72
:102B0000F16BD2C541BDBBBED0A4BE726937663E73
:102B10000000000000000000382B0008000000202A
:102B200064000000882900089C2B00086400002035
:102B30003C0400009829000800000000000000008C
:102B40000000000000000000000000000000000085
:102B50000000000000000000000000000000000075
:102B60000000000000000000000000000000000065
:102B70000000000000000000000000000000000055
:102B80000000000000000000010000001000000034
:0C2B9000000000000024F4000000000021
:040000050800018965
:00000001FF
